{
  "transactions": [
    {
      "hash": "0x1e6b013dd1c63ac48554a4ac7314b84ca5fe479a26d5b725254f686873add4b7",
      "transactionType": "CALL",
      "contractName": null,
      "contractAddress": "0x9f76259ff348362e23753815d351c5f4177b77b7",
      "function": "mint(address,uint256)",
      "arguments": [
        "0x2b4446A700201Febe798745FdB4A4Ab476f75E26",
        "100000000000000000000"
      ],
      "transaction": {
        "from": "0x2b4446a700201febe798745fdb4a4ab476f75e26",
        "to": "0x9f76259ff348362e23753815d351c5f4177b77b7",
        "gas": "0xc65d",
        "value": "0x0",
        "input": "0x40c10f190000000000000000000000002b4446a700201febe798745fdb4a4ab476f75e260000000000000000000000000000000000000000000000056bc75e2d63100000",
        "nonce": "0x1f",
        "chainId": "0xaa36a7"
      },
      "additionalContracts": [],
      "isFixedGasLimit": false
    },
    {
      "hash": "0x9151bc8b2d2b1f3f64090c624375db762c35a5f8a1bc58ec15a90def9f3684b6",
      "transactionType": "CALL",
      "contractName": null,
      "contractAddress": "0x9f76259ff348362e23753815d351c5f4177b77b7",
      "function": "approve(address,uint256)",
      "arguments": [
        "0xcD54697e22264a0c496606301ae19421c690f3dc",
        "100000000000000000000"
      ],
      "transaction": {
        "from": "0x2b4446a700201febe798745fdb4a4ab476f75e26",
        "to": "0x9f76259ff348362e23753815d351c5f4177b77b7",
        "gas": "0xa100",
        "value": "0x0",
        "input": "0x095ea7b3000000000000000000000000cd54697e22264a0c496606301ae19421c690f3dc0000000000000000000000000000000000000000000000056bc75e2d63100000",
        "nonce": "0x20",
        "chainId": "0xaa36a7"
      },
      "additionalContracts": [],
      "isFixedGasLimit": false
    },
    {
      "hash": "0x774d6976cb17b355361925333299ed8575cf41bc136d18bfce15d1d766ba745f",
      "transactionType": "CALL",
      "contractName": null,
      "contractAddress": "0xcd54697e22264a0c496606301ae19421c690f3dc",
      "function": "lockTokens(address,uint256,uint256,address)",
      "arguments": [
        "0x9f76259FF348362e23753815d351c5F4177b77B7",
        "10000000000000000000",
        "560048",
        "0x2b4446A700201Febe798745FdB4A4Ab476f75E26"
      ],
      "transaction": {
        "from": "0x2b4446a700201febe798745fdb4a4ab476f75e26",
        "to": "0xcd54697e22264a0c496606301ae19421c690f3dc",
        "gas": "0x34266",
        "value": "0x0",
        "input": "0x0aa393f30000000000000000000000009f76259ff348362e23753815d351c5f4177b77b70000000000000000000000000000000000000000000000008ac7230489e800000000000000000000000000000000000000000000000000000000000000088bb00000000000000000000000002b4446a700201febe798745fdb4a4ab476f75e26",
        "nonce": "0x21",
        "chainId": "0xaa36a7"
      },
      "additionalContracts": [],
      "isFixedGasLimit": false
    }
  ],
  "receipts": [
    {
      "status": "0x1",
      "cumulativeGasUsed": "0x1657cbb",
      "logs": [
        {
          "address": "0x9f76259ff348362e23753815d351c5f4177b77b7",
          "topics": [
            "0xddf252ad1be2c89b69c2b068fc378daa952ba7f163c4a11628f55a4df523b3ef",
            "0x0000000000000000000000000000000000000000000000000000000000000000",
            "0x0000000000000000000000002b4446a700201febe798745fdb4a4ab476f75e26"
          ],
          "data": "0x0000000000000000000000000000000000000000000000056bc75e2d63100000",
          "blockHash": "0xcf869bff41f5b0bb158d6cababfbf39c5cd78979fc5b64c491fb15c5113dc9f4",
          "blockNumber": "0x9b0c02",
          "blockTimestamp": "0x697dbd34",
          "transactionHash": "0x1e6b013dd1c63ac48554a4ac7314b84ca5fe479a26d5b725254f686873add4b7",
          "transactionIndex": "0xa4",
          "logIndex": "0x17e",
          "removed": false
        }
      ],
      "logsBloom": "0x00000000000000000000000000000000000000000000000000000000000000000000800000000000000000000000000000000000000000000000000000000004000000000000000000000008000000000000000000000000000000000000000000200000020000000000000000000800000000000000000000000010010000000000800000000000000000400000000000000000000000000000000000000000000000000000000000000000000000000000000000000000000000000000000000000002000000000000000000000000000000000000000000000000000020000000000000000000000000000000000000000000000000000000000000000000",
      "type": "0x2",
      "transactionHash": "0x1e6b013dd1c63ac48554a4ac7314b84ca5fe479a26d5b725254f686873add4b7",
      "transactionIndex": "0xa4",
      "blockHash": "0xcf869bff41f5b0bb158d6cababfbf39c5cd78979fc5b64c491fb15c5113dc9f4",
      "blockNumber": "0x9b0c02",
      "gasUsed": "0x87a3",
      "effectiveGasPrice": "0x3fa4d4a3",
      "from": "0x2b4446a700201febe798745fdb4a4ab476f75e26",
      "to": "0x9f76259ff348362e23753815d351c5f4177b77b7",
      "contractAddress": null
    },
    {
      "status": "0x1",
      "cumulativeGasUsed": "0x165f14b",
      "logs": [
        {
          "address": "0x9f76259ff348362e23753815d351c5f4177b77b7",
          "topics": [
            "0x8c5be1e5ebec7d5bd14f71427d1e84f3dd0314c0f7b2291e5b200ac8c7c3b925",
            "0x0000000000000000000000002b4446a700201febe798745fdb4a4ab476f75e26",
            "0x000000000000000000000000cd54697e22264a0c496606301ae19421c690f3dc"
          ],
          "data": "0x0000000000000000000000000000000000000000000000056bc75e2d63100000",
          "blockHash": "0xcf869bff41f5b0bb158d6cababfbf39c5cd78979fc5b64c491fb15c5113dc9f4",
          "blockNumber": "0x9b0c02",
          "blockTimestamp": "0x697dbd34",
          "transactionHash": "0x9151bc8b2d2b1f3f64090c624375db762c35a5f8a1bc58ec15a90def9f3684b6",
          "transactionIndex": "0xa5",
          "logIndex": "0x17f",
          "removed": false
        }
      ],
      "logsBloom": "0x00000000000000000000000000000000000000000000000000000000000000000000800000000000000000000000000000000000000000000000008000200004000000000000000000000000000000000000000000000000000000000000000000200000000000000000000000000000000000000000000000000000010000000000800000000000000000400000000000000000000000200000000000000000020000000000000000000000000000000000000000000000000000000000000000000000000000000000000000000000000000000000000000000000000000000010000000000000000000040000000000000000000000000000000000000000",
      "type": "0x2",
      "transactionHash": "0x9151bc8b2d2b1f3f64090c624375db762c35a5f8a1bc58ec15a90def9f3684b6",
      "transactionIndex": "0xa5",
      "blockHash": "0xcf869bff41f5b0bb158d6cababfbf39c5cd78979fc5b64c491fb15c5113dc9f4",
      "blockNumber": "0x9b0c02",
      "gasUsed": "0x7490",
      "effectiveGasPrice": "0x3fa4d4a3",
      "from": "0x2b4446a700201febe798745fdb4a4ab476f75e26",
      "to": "0x9f76259ff348362e23753815d351c5f4177b77b7",
      "contractAddress": null
    },
    {
      "status": "0x1",
      "cumulativeGasUsed": "0x1684d63",
      "logs": [
        {
          "address": "0x9f76259ff348362e23753815d351c5f4177b77b7",
          "topics": [
            "0xddf252ad1be2c89b69c2b068fc378daa952ba7f163c4a11628f55a4df523b3ef",
            "0x0000000000000000000000002b4446a700201febe798745fdb4a4ab476f75e26",
            "0x000000000000000000000000cd54697e22264a0c496606301ae19421c690f3dc"
          ],
          "data": "0x0000000000000000000000000000000000000000000000008ac7230489e80000",
          "blockHash": "0xcf869bff41f5b0bb158d6cababfbf39c5cd78979fc5b64c491fb15c5113dc9f4",
          "blockNumber": "0x9b0c02",
          "blockTimestamp": "0x697dbd34",
          "transactionHash": "0x774d6976cb17b355361925333299ed8575cf41bc136d18bfce15d1d766ba745f",
          "transactionIndex": "0xa6",
          "logIndex": "0x180",
          "removed": false
        },
        {
          "address": "0xcd54697e22264a0c496606301ae19421c690f3dc",
          "topics": [
            "0x0e3b6efba50a82b66564e76271e9a340ad970ff461db2a0ce639902c405e59dd",
            "0x0000000000000000000000002b4446a700201febe798745fdb4a4ab476f75e26",
            "0x0000000000000000000000009f76259ff348362e23753815d351c5f4177b77b7",
            "0x0000000000000000000000000000000000000000000000000000000000088bb0"
          ],
          "data": "0x0000000000000000000000000000000000000000000000008ac7230489e800000000000000000000000000002b4446a700201febe798745fdb4a4ab476f75e260000000000000000000000000000000000000000000000000000000000000006",
          "blockHash": "0xcf869bff41f5b0bb158d6cababfbf39c5cd78979fc5b64c491fb15c5113dc9f4",
          "blockNumber": "0x9b0c02",
          "blockTimestamp": "0x697dbd34",
          "transactionHash": "0x774d6976cb17b355361925333299ed8575cf41bc136d18bfce15d1d766ba745f",
          "transactionIndex": "0xa6",
          "logIndex": "0x181",
          "removed": false
        }
      ],
      "logsBloom": "0x00100000000000000000000000020000000000000000000000000000000000000000800004000000000000000001000000000000000000000000008000000004000000000000000000000008500000000000000000000000020000000004000000200000000000000000000000000100000000000000000000000010010000000000800000000000000000400000000000000000090000200000000000000000000000000000000000000000000000000000000000000000000000000000000000000002000000000000000000000000000000000000000000000000000000001000000000000000000000040000000000000000000000000000000000000000",
      "type": "0x2",
      "transactionHash": "0x774d6976cb17b355361925333299ed8575cf41bc136d18bfce15d1d766ba745f",
      "transactionIndex": "0xa6",
      "blockHash": "0xcf869bff41f5b0bb158d6cababfbf39c5cd78979fc5b64c491fb15c5113dc9f4",
      "blockNumber": "0x9b0c02",
      "gasUsed": "0x25c18",
      "effectiveGasPrice": "0x3fa4d4a3",
      "from": "0x2b4446a700201febe798745fdb4a4ab476f75e26",
      "to": "0xcd54697e22264a0c496606301ae19421c690f3dc",
      "contractAddress": null
    }
  ],
  "libraries": [],
  "pending": [],
  "returns": {},
  "timestamp": 1769848120025,
  "chain": 11155111,
  "commit": null
}