{
  "transactions": [
    {
      "hash": "0x27b6b17d3a8cb8d26057c944219cfe80a1e78f21e62f60411a03b1678d6c5f87",
      "transactionType": "CALL",
      "contractName": null,
      "contractAddress": "0xabb81b91be2b922e6059844ed844d5660b41a75f",
      "function": "burnForBridge(uint256,address)",
      "arguments": [
        "5000000000000000000",
        "0x2b4446A700201Febe798745FdB4A4Ab476f75E26"
      ],
      "transaction": {
        "from": "0x2b4446a700201febe798745fdb4a4ab476f75e26",
        "to": "0xabb81b91be2b922e6059844ed844d5660b41a75f",
        "gas": "0x1632c",
        "value": "0x0",
        "input": "0xca81a9bc0000000000000000000000000000000000000000000000004563918244f400000000000000000000000000002b4446a700201febe798745fdb4a4ab476f75e26",
        "nonce": "0xc",
        "chainId": "0x88bb0"
      },
      "additionalContracts": [],
      "isFixedGasLimit": false
    }
  ],
  "receipts": [
    {
      "status": "0x1",
      "cumulativeGasUsed": "0x37a136a",
      "logs": [
        {
          "address": "0xabb81b91be2b922e6059844ed844d5660b41a75f",
          "topics": [
            "0xddf252ad1be2c89b69c2b068fc378daa952ba7f163c4a11628f55a4df523b3ef",
            "0x0000000000000000000000002b4446a700201febe798745fdb4a4ab476f75e26",
            "0x0000000000000000000000000000000000000000000000000000000000000000"
          ],
          "data": "0x0000000000000000000000000000000000000000000000004563918244f40000",
          "blockHash": "0x020df4591c9fecb011a3568105437843bbacd2feac8984c28d36279f35a0ae9a",
          "blockNumber": "0x20a96f",
          "blockTimestamp": "0x697dbbfc",
          "transactionHash": "0x27b6b17d3a8cb8d26057c944219cfe80a1e78f21e62f60411a03b1678d6c5f87",
          "transactionIndex": "0x27",
          "logIndex": "0x40",
          "removed": false
        },
        {
          "address": "0xabb81b91be2b922e6059844ed844d5660b41a75f",
          "topics": [
            "0x05d30f84bc5d767812dc6e4d8373193f391832b87d2c52ac0608ad2f27bf52c6",
            "0x0000000000000000000000002b4446a700201febe798745fdb4a4ab476f75e26",
            "0x0000000000000000000000000000000000000000000000000000000000aa36a7",
            "0x0000000000000000000000002b4446a700201febe798745fdb4a4ab476f75e26"
          ],
          "data": "0x0000000000000000000000000000000000000000000000004563918244f400000000000000000000000000000000000000000000000000000000000000000001",
          "blockHash": "0x020df4591c9fecb011a3568105437843bbacd2feac8984c28d36279f35a0ae9a",
          "blockNumber": "0x20a96f",
          "blockTimestamp": "0x697dbbfc",
          "transactionHash": "0x27b6b17d3a8cb8d26057c944219cfe80a1e78f21e62f60411a03b1678d6c5f87",
          "transactionIndex": "0x27",
          "logIndex": "0x41",
          "removed": false
        }
      ],
      "logsBloom": "0x0000000000000020000000000000000000000000000000000000000000000000000000000000000000000000000000000200000000000000000000000000000400000000000000000000000a000000000000000000000000000000000000000000200800020000000000000000000800000000000000000000000010000000000000000000020040000000400000000000000000000000000000000000000000000000000000000000000000000000000000000000000000000000000200000000000002800000000000000000000000100000000000000000000000000020000000000000000000000000000000000000000000000000000000000000000000",
      "type": "0x2",
      "transactionHash": "0x27b6b17d3a8cb8d26057c944219cfe80a1e78f21e62f60411a03b1678d6c5f87",
      "transactionIndex": "0x27",
      "blockHash": "0x020df4591c9fecb011a3568105437843bbacd2feac8984c28d36279f35a0ae9a",
      "blockNumber": "0x20a96f",
      "gasUsed": "0xf2db",
      "effectiveGasPrice": "0x3a0e7fe8",
      "from": "0x2b4446a700201febe798745fdb4a4ab476f75e26",
      "to": "0xabb81b91be2b922e6059844ed844d5660b41a75f",
      "contractAddress": null
    }
  ],
  "libraries": [],
  "pending": [],
  "returns": {},
  "timestamp": 1769847808418,
  "chain": 560048,
  "commit": null
}