{
  "transactions": [
    {
      "hash": "0x30ba140932ec40445f77197285f1cc233673a6449d20b76d60674544eb1d4f81",
      "transactionType": "CALL",
      "contractName": null,
      "contractAddress": "0xabb81b91be2b922e6059844ed844d5660b41a75f",
      "function": "burnForBridge(uint256,address)",
      "arguments": [
        "5000000000000000000",
        "0x2b4446A700201Febe798745FdB4A4Ab476f75E26"
      ],
      "transaction": {
        "from": "0x2b4446a700201febe798745fdb4a4ab476f75e26",
        "to": "0xabb81b91be2b922e6059844ed844d5660b41a75f",
        "gas": "0xf32d",
        "value": "0x0",
        "input": "0xca81a9bc0000000000000000000000000000000000000000000000004563918244f400000000000000000000000000002b4446a700201febe798745fdb4a4ab476f75e26",
        "nonce": "0xf",
        "chainId": "0x88bb0"
      },
      "additionalContracts": [],
      "isFixedGasLimit": false
    }
  ],
  "receipts": [
    {
      "status": "0x1",
      "cumulativeGasUsed": "0x38b26a9",
      "logs": [
        {
          "address": "0xabb81b91be2b922e6059844ed844d5660b41a75f",
          "topics": [
            "0xddf252ad1be2c89b69c2b068fc378daa952ba7f163c4a11628f55a4df523b3ef",
            "0x0000000000000000000000002b4446a700201febe798745fdb4a4ab476f75e26",
            "0x0000000000000000000000000000000000000000000000000000000000000000"
          ],
          "data": "0x0000000000000000000000000000000000000000000000004563918244f40000",
          "blockHash": "0x6a221a0a5cec326463a7353ab48ad3a6c0c4815e854f9901598e4cc950451fa0",
          "blockNumber": "0x20a98b",
          "blockTimestamp": "0x697dbd88",
          "transactionHash": "0x30ba140932ec40445f77197285f1cc233673a6449d20b76d60674544eb1d4f81",
          "transactionIndex": "0x1f",
          "logIndex": "0x1f",
          "removed": false
        },
        {
          "address": "0xabb81b91be2b922e6059844ed844d5660b41a75f",
          "topics": [
            "0x05d30f84bc5d767812dc6e4d8373193f391832b87d2c52ac0608ad2f27bf52c6",
            "0x0000000000000000000000002b4446a700201febe798745fdb4a4ab476f75e26",
            "0x0000000000000000000000000000000000000000000000000000000000aa36a7",
            "0x0000000000000000000000002b4446a700201febe798745fdb4a4ab476f75e26"
          ],
          "data": "0x0000000000000000000000000000000000000000000000004563918244f400000000000000000000000000000000000000000000000000000000000000000003",
          "blockHash": "0x6a221a0a5cec326463a7353ab48ad3a6c0c4815e854f9901598e4cc950451fa0",
          "blockNumber": "0x20a98b",
          "blockTimestamp": "0x697dbd88",
          "transactionHash": "0x30ba140932ec40445f77197285f1cc233673a6449d20b76d60674544eb1d4f81",
          "transactionIndex": "0x1f",
          "logIndex": "0x20",
          "removed": false
        }
      ],
      "logsBloom": "0x0000000000000020000000000000000000000000000000000000000000000000000000000000000000000000000000000200000000000000000000000000000400000000000000000000000a000000000000000000000000000000000000000000200800020000000000000000000800000000000000000000000010000000000000000000020040000000400000000000000000000000000000000000000000000000000000000000000000000000000000000000000000000000000200000000000002800000000000000000000000100000000000000000000000000020000000000000000000000000000000000000000000000000000000000000000000",
      "type": "0x2",
      "transactionHash": "0x30ba140932ec40445f77197285f1cc233673a6449d20b76d60674544eb1d4f81",
      "transactionIndex": "0x1f",
      "blockHash": "0x6a221a0a5cec326463a7353ab48ad3a6c0c4815e854f9901598e4cc950451fa0",
      "blockNumber": "0x20a98b",
      "gasUsed": "0xb00f",
      "effectiveGasPrice": "0x3935941e",
      "from": "0x2b4446a700201febe798745fdb4a4ab476f75e26",
      "to": "0xabb81b91be2b922e6059844ed844d5660b41a75f",
      "contractAddress": null
    }
  ],
  "libraries": [],
  "pending": [],
  "returns": {},
  "timestamp": 1769848205628,
  "chain": 560048,
  "commit": null
}